{
  "contractName": "Dex",
  "abi": [
    {
      "inputs": [],
      "stateMutability": "nonpayable",
      "type": "constructor"
    },
    {
      "anonymous": false,
      "inputs": [
        {
          "indexed": false,
          "internalType": "uint256",
          "name": "tradeId",
          "type": "uint256"
        },
        {
          "indexed": false,
          "internalType": "uint256",
          "name": "orderId",
          "type": "uint256"
        },
        {
          "indexed": true,
          "internalType": "bytes32",
          "name": "ticker",
          "type": "bytes32"
        },
        {
          "indexed": true,
          "internalType": "address",
          "name": "trader1",
          "type": "address"
        },
        {
          "indexed": true,
          "internalType": "address",
          "name": "trader2",
          "type": "address"
        },
        {
          "indexed": false,
          "internalType": "uint256",
          "name": "amount",
          "type": "uint256"
        },
        {
          "indexed": false,
          "internalType": "uint256",
          "name": "price",
          "type": "uint256"
        },
        {
          "indexed": false,
          "internalType": "uint256",
          "name": "date",
          "type": "uint256"
        }
      ],
      "name": "NewTrade",
      "type": "event"
    },
    {
      "anonymous": false,
      "inputs": [
        {
          "indexed": false,
          "internalType": "address",
          "name": "user",
          "type": "address"
        },
        {
          "indexed": false,
          "internalType": "uint256",
          "name": "amount",
          "type": "uint256"
        },
        {
          "indexed": false,
          "internalType": "uint256",
          "name": "balance",
          "type": "uint256"
        },
        {
          "indexed": true,
          "internalType": "uint256",
          "name": "date",
          "type": "uint256"
        }
      ],
      "name": "WalletFund",
      "type": "event"
    },
    {
      "inputs": [],
      "name": "admin",
      "outputs": [
        {
          "internalType": "address",
          "name": "",
          "type": "address"
        }
      ],
      "stateMutability": "view",
      "type": "function",
      "constant": true
    },
    {
      "inputs": [],
      "name": "nextOrderId",
      "outputs": [
        {
          "internalType": "uint256",
          "name": "",
          "type": "uint256"
        }
      ],
      "stateMutability": "view",
      "type": "function",
      "constant": true
    },
    {
      "inputs": [],
      "name": "nextTradeId",
      "outputs": [
        {
          "internalType": "uint256",
          "name": "",
          "type": "uint256"
        }
      ],
      "stateMutability": "view",
      "type": "function",
      "constant": true
    },
    {
      "inputs": [
        {
          "internalType": "bytes32",
          "name": "",
          "type": "bytes32"
        },
        {
          "internalType": "uint256",
          "name": "",
          "type": "uint256"
        },
        {
          "internalType": "uint256",
          "name": "",
          "type": "uint256"
        }
      ],
      "name": "orderBook",
      "outputs": [
        {
          "internalType": "uint256",
          "name": "id",
          "type": "uint256"
        },
        {
          "internalType": "address",
          "name": "trader",
          "type": "address"
        },
        {
          "internalType": "enum Dex.Side",
          "name": "side",
          "type": "uint8"
        },
        {
          "internalType": "bytes32",
          "name": "ticker",
          "type": "bytes32"
        },
        {
          "internalType": "uint256",
          "name": "amount",
          "type": "uint256"
        },
        {
          "internalType": "uint256",
          "name": "filled",
          "type": "uint256"
        },
        {
          "internalType": "uint256",
          "name": "price",
          "type": "uint256"
        },
        {
          "internalType": "uint256",
          "name": "date",
          "type": "uint256"
        }
      ],
      "stateMutability": "view",
      "type": "function",
      "constant": true
    },
    {
      "inputs": [
        {
          "internalType": "uint256",
          "name": "",
          "type": "uint256"
        }
      ],
      "name": "tokenList",
      "outputs": [
        {
          "internalType": "bytes32",
          "name": "",
          "type": "bytes32"
        }
      ],
      "stateMutability": "view",
      "type": "function",
      "constant": true
    },
    {
      "inputs": [
        {
          "internalType": "bytes32",
          "name": "",
          "type": "bytes32"
        }
      ],
      "name": "tokens",
      "outputs": [
        {
          "internalType": "bytes32",
          "name": "ticker",
          "type": "bytes32"
        },
        {
          "internalType": "address",
          "name": "tokenAddress",
          "type": "address"
        }
      ],
      "stateMutability": "view",
      "type": "function",
      "constant": true
    },
    {
      "inputs": [
        {
          "internalType": "address",
          "name": "",
          "type": "address"
        },
        {
          "internalType": "bytes32",
          "name": "",
          "type": "bytes32"
        }
      ],
      "name": "traderBalances",
      "outputs": [
        {
          "internalType": "uint256",
          "name": "",
          "type": "uint256"
        }
      ],
      "stateMutability": "view",
      "type": "function",
      "constant": true
    },
    {
      "stateMutability": "payable",
      "type": "receive",
      "payable": true
    },
    {
      "inputs": [
        {
          "internalType": "bytes32",
          "name": "ticker",
          "type": "bytes32"
        },
        {
          "internalType": "enum Dex.Side",
          "name": "side",
          "type": "uint8"
        }
      ],
      "name": "getOrders",
      "outputs": [
        {
          "components": [
            {
              "internalType": "uint256",
              "name": "id",
              "type": "uint256"
            },
            {
              "internalType": "address",
              "name": "trader",
              "type": "address"
            },
            {
              "internalType": "enum Dex.Side",
              "name": "side",
              "type": "uint8"
            },
            {
              "internalType": "bytes32",
              "name": "ticker",
              "type": "bytes32"
            },
            {
              "internalType": "uint256",
              "name": "amount",
              "type": "uint256"
            },
            {
              "internalType": "uint256",
              "name": "filled",
              "type": "uint256"
            },
            {
              "internalType": "uint256",
              "name": "price",
              "type": "uint256"
            },
            {
              "internalType": "uint256",
              "name": "date",
              "type": "uint256"
            }
          ],
          "internalType": "struct Dex.Order[]",
          "name": "",
          "type": "tuple[]"
        }
      ],
      "stateMutability": "view",
      "type": "function",
      "constant": true
    },
    {
      "inputs": [],
      "name": "getTokens",
      "outputs": [
        {
          "components": [
            {
              "internalType": "bytes32",
              "name": "ticker",
              "type": "bytes32"
            },
            {
              "internalType": "address",
              "name": "tokenAddress",
              "type": "address"
            }
          ],
          "internalType": "struct Dex.Token[]",
          "name": "",
          "type": "tuple[]"
        }
      ],
      "stateMutability": "view",
      "type": "function",
      "constant": true
    },
    {
      "inputs": [
        {
          "internalType": "bytes32",
          "name": "ticker",
          "type": "bytes32"
        },
        {
          "internalType": "address",
          "name": "tokenAddress",
          "type": "address"
        }
      ],
      "name": "addToken",
      "outputs": [],
      "stateMutability": "nonpayable",
      "type": "function"
    },
    {
      "inputs": [
        {
          "internalType": "uint256",
          "name": "amount",
          "type": "uint256"
        },
        {
          "internalType": "bytes32",
          "name": "ticker",
          "type": "bytes32"
        }
      ],
      "name": "deposit",
      "outputs": [],
      "stateMutability": "nonpayable",
      "type": "function"
    },
    {
      "inputs": [
        {
          "internalType": "uint256",
          "name": "amount",
          "type": "uint256"
        },
        {
          "internalType": "bytes32",
          "name": "ticker",
          "type": "bytes32"
        }
      ],
      "name": "withdraw",
      "outputs": [],
      "stateMutability": "nonpayable",
      "type": "function"
    },
    {
      "inputs": [
        {
          "internalType": "bytes32",
          "name": "ticker",
          "type": "bytes32"
        },
        {
          "internalType": "uint256",
          "name": "amount",
          "type": "uint256"
        },
        {
          "internalType": "uint256",
          "name": "price",
          "type": "uint256"
        },
        {
          "internalType": "enum Dex.Side",
          "name": "side",
          "type": "uint8"
        }
      ],
      "name": "createLimitOrder",
      "outputs": [],
      "stateMutability": "nonpayable",
      "type": "function"
    },
    {
      "inputs": [
        {
          "internalType": "bytes32",
          "name": "ticker",
          "type": "bytes32"
        },
        {
          "internalType": "uint256",
          "name": "amount",
          "type": "uint256"
        },
        {
          "internalType": "enum Dex.Side",
          "name": "side",
          "type": "uint8"
        }
      ],
      "name": "createMarketOrder",
      "outputs": [],
      "stateMutability": "nonpayable",
      "type": "function"
    }
  ],
  "bytecode": "0x608060405234801561001057600080fd5b5033600460006101000a81548173ffffffffffffffffffffffffffffffffffffffff021916908373ffffffffffffffffffffffffffffffffffffffff160217905550613731806100616000396000f3fe6080604052600436106100e15760003560e01c80639776aacf1161007f578063aa6ca80811610059578063aa6ca808146104fe578063c9630cb014610529578063d9c0c95014610552578063f851a4401461057b576102ef565b80639776aacf1461046f5780639ead722214610498578063a8d2021a146104d5576102ef565b806372ce957e116100bb57806372ce957e146103a05780637f2c6246146103dd578063813ad08314610406578063904194a314610431576102ef565b80630bb431b6146102f45780632a58b3301461033857806346e9658b14610363576102ef565b366102ef57600034101561012a576040517f08c379a0000000000000000000000000000000000000000000000000000000008152600401610121906133c6565b60405180910390fd5b6000660221b262dd8000670de0b6b3a764000034028161014657fe5b0490506101cc81600260003373ffffffffffffffffffffffffffffffffffffffff1673ffffffffffffffffffffffffffffffffffffffff16815260200190815260200160002060007f44414900000000000000000000000000000000000000000000000000000000008152602001908152602001600020546105a690919063ffffffff16565b600260003373ffffffffffffffffffffffffffffffffffffffff1673ffffffffffffffffffffffffffffffffffffffff16815260200190815260200160002060007f4441490000000000000000000000000000000000000000000000000000000000815260200190815260200160002081905550427fac22e5964650fb33d497039f2a2ab656ed1bc869df9559f6799762321e48137c3334600260003373ffffffffffffffffffffffffffffffffffffffff1673ffffffffffffffffffffffffffffffffffffffff16815260200190815260200160002060007f44414900000000000000000000000000000000000000000000000000000000008152602001908152602001600020546040516102e493929190613267565b60405180910390a250005b600080fd5b34801561030057600080fd5b5061031b60048036036103169190810190612bea565b6105fb565b60405161032f989796959493929190613481565b60405180910390f35b34801561034457600080fd5b5061034d610697565b60405161035a9190613466565b60405180910390f35b34801561036f57600080fd5b5061038a60048036036103859190810190612b5f565b61069d565b604051610397919061329e565b60405180910390f35b3480156103ac57600080fd5b506103c760048036036103c29190810190612a95565b6107ec565b6040516103d49190613466565b60405180910390f35b3480156103e957600080fd5b5061040460048036036103ff9190810190612b9b565b610811565b005b34801561041257600080fd5b5061041b6118eb565b6040516104289190613466565b60405180910390f35b34801561043d57600080fd5b5061045860048036036104539190810190612afa565b6118f1565b6040516104669291906132fd565b60405180910390f35b34801561047b57600080fd5b5061049660048036036104919190810190612b23565b611935565b005b3480156104a457600080fd5b506104bf60048036036104ba9190810190612c9c565b611a83565b6040516104cc91906132e2565b60405180910390f35b3480156104e157600080fd5b506104fc60048036036104f79190810190612cc5565b611aa4565b005b34801561050a57600080fd5b50610513611d5c565b60405161052091906132c0565b60405180910390f35b34801561053557600080fd5b50610550600480360361054b9190810190612cc5565b611e83565b005b34801561055e57600080fd5b5061057960048036036105749190810190612c39565b6120aa565b005b34801561058757600080fd5b506105906128aa565b60405161059d91906131ec565b60405180910390f35b6000808284019050838110156105f1576040517f08c379a00000000000000000000000000000000000000000000000000000000081526004016105e890613326565b60405180910390fd5b8091505092915050565b6003602052826000526040600020602052816000526040600020818154811061062057fe5b906000526020600020906007020160009250925050508060000154908060010160009054906101000a900473ffffffffffffffffffffffffffffffffffffffff16908060010160149054906101000a900460ff16908060020154908060030154908060040154908060050154908060060154905088565b60055481565b60606003600084815260200190815260200160002060008360018111156106c057fe5b8152602001908152602001600020805480602002602001604051908101604052809291908181526020016000905b828210156107e0578382906000526020600020906007020160405180610100016040529081600082015481526020016001820160009054906101000a900473ffffffffffffffffffffffffffffffffffffffff1673ffffffffffffffffffffffffffffffffffffffff1673ffffffffffffffffffffffffffffffffffffffff1681526020016001820160149054906101000a900460ff16600181111561079057fe5b600181111561079b57fe5b815260200160028201548152602001600382015481526020016004820154815260200160058201548152602001600682015481525050815260200190600101906106ee565b50505050905092915050565b6002602052816000526040600020602052806000526040600020600091509150505481565b82600073ffffffffffffffffffffffffffffffffffffffff1660008083815260200190815260200160002060010160009054906101000a900473ffffffffffffffffffffffffffffffffffffffff1673ffffffffffffffffffffffffffffffffffffffff1614156108b7576040517f08c379a00000000000000000000000000000000000000000000000000000000081526004016108ae90613446565b60405180910390fd5b837f444149000000000000000000000000000000000000000000000000000000000081141561091b576040517f08c379a0000000000000000000000000000000000000000000000000000000008152600401610912906133a6565b60405180910390fd5b60018081111561092757fe5b83600181111561093357fe5b14156109cd5783600260003373ffffffffffffffffffffffffffffffffffffffff1673ffffffffffffffffffffffffffffffffffffffff16815260200190815260200160002060008781526020019081526020016000205410156109cc576040517f08c379a00000000000000000000000000000000000000000000000000000000081526004016109c390613406565b60405180910390fd5b5b60006003600087815260200190815260200160002060008060018111156109f057fe5b8660018111156109fc57fe5b14610a08576000610a0b565b60015b6001811115610a1657fe5b815260200190815260200160002090506000808690505b828054905082108015610a405750600081115b156116ac576000610a94848481548110610a5657fe5b906000526020600020906007020160040154858581548110610a7457fe5b9060005260206000209060070201600301546128d090919063ffffffff16565b90506000818311610aa55782610aa7565b815b9050610abc81846128d090919063ffffffff16565b9250610aee81868681548110610ace57fe5b9060005260206000209060070201600401546105a690919063ffffffff16565b858581548110610afa57fe5b9060005260206000209060070201600401819055503373ffffffffffffffffffffffffffffffffffffffff16858581548110610b3257fe5b906000526020600020906007020160010160009054906101000a900473ffffffffffffffffffffffffffffffffffffffff1673ffffffffffffffffffffffffffffffffffffffff168b7fdb0c486e680ba8026643e6a85f8d157b5e7bcd4b32b54d564542570a9eb20416600654898981548110610bab57fe5b906000526020600020906007020160000154868b8b81548110610bca57fe5b90600052602060002090600702016005015442604051610bee9594939291906134ff565b60405180910390a4600180811115610c0257fe5b886001811115610c0e57fe5b14156110c357610c7781600260003373ffffffffffffffffffffffffffffffffffffffff1673ffffffffffffffffffffffffffffffffffffffff16815260200190815260200160002060008d8152602001908152602001600020546128d090919063ffffffff16565b600260003373ffffffffffffffffffffffffffffffffffffffff1673ffffffffffffffffffffffffffffffffffffffff16815260200190815260200160002060008c815260200190815260200160002081905550610d7d610cfe868681548110610cdd57fe5b9060005260206000209060070201600501548361292090919063ffffffff16565b600260003373ffffffffffffffffffffffffffffffffffffffff1673ffffffffffffffffffffffffffffffffffffffff16815260200190815260200160002060007f44414900000000000000000000000000000000000000000000000000000000008152602001908152602001600020546105a690919063ffffffff16565b600260003373ffffffffffffffffffffffffffffffffffffffff1673ffffffffffffffffffffffffffffffffffffffff16815260200190815260200160002060007f4441490000000000000000000000000000000000000000000000000000000000815260200190815260200160002081905550610e918160026000888881548110610e0557fe5b906000526020600020906007020160010160009054906101000a900473ffffffffffffffffffffffffffffffffffffffff1673ffffffffffffffffffffffffffffffffffffffff1673ffffffffffffffffffffffffffffffffffffffff16815260200190815260200160002060008d8152602001908152602001600020546105a690919063ffffffff16565b60026000878781548110610ea157fe5b906000526020600020906007020160010160009054906101000a900473ffffffffffffffffffffffffffffffffffffffff1673ffffffffffffffffffffffffffffffffffffffff1673ffffffffffffffffffffffffffffffffffffffff16815260200190815260200160002060008c815260200190815260200160002081905550611011610f55868681548110610f3457fe5b9060005260206000209060070201600501548361292090919063ffffffff16565b60026000888881548110610f6557fe5b906000526020600020906007020160010160009054906101000a900473ffffffffffffffffffffffffffffffffffffffff1673ffffffffffffffffffffffffffffffffffffffff1673ffffffffffffffffffffffffffffffffffffffff16815260200190815260200160002060007f44414900000000000000000000000000000000000000000000000000000000008152602001908152602001600020546128d090919063ffffffff16565b6002600087878154811061102157fe5b906000526020600020906007020160010160009054906101000a900473ffffffffffffffffffffffffffffffffffffffff1673ffffffffffffffffffffffffffffffffffffffff1673ffffffffffffffffffffffffffffffffffffffff16815260200190815260200160002060007f44414900000000000000000000000000000000000000000000000000000000008152602001908152602001600020819055505b600060018111156110d057fe5b8860018111156110dc57fe5b1415611673576111128585815481106110f157fe5b9060005260206000209060070201600501548261292090919063ffffffff16565b600260003373ffffffffffffffffffffffffffffffffffffffff1673ffffffffffffffffffffffffffffffffffffffff16815260200190815260200160002060007f444149000000000000000000000000000000000000000000000000000000000081526020019081526020016000205410156111c4576040517f08c379a00000000000000000000000000000000000000000000000000000000081526004016111bb90613426565b60405180910390fd5b61122781600260003373ffffffffffffffffffffffffffffffffffffffff1673ffffffffffffffffffffffffffffffffffffffff16815260200190815260200160002060008d8152602001908152602001600020546105a690919063ffffffff16565b600260003373ffffffffffffffffffffffffffffffffffffffff1673ffffffffffffffffffffffffffffffffffffffff16815260200190815260200160002060008c81526020019081526020016000208190555061132d6112ae86868154811061128d57fe5b9060005260206000209060070201600501548361292090919063ffffffff16565b600260003373ffffffffffffffffffffffffffffffffffffffff1673ffffffffffffffffffffffffffffffffffffffff16815260200190815260200160002060007f44414900000000000000000000000000000000000000000000000000000000008152602001908152602001600020546128d090919063ffffffff16565b600260003373ffffffffffffffffffffffffffffffffffffffff1673ffffffffffffffffffffffffffffffffffffffff16815260200190815260200160002060007f444149000000000000000000000000000000000000000000000000000000000081526020019081526020016000208190555061144181600260008888815481106113b557fe5b906000526020600020906007020160010160009054906101000a900473ffffffffffffffffffffffffffffffffffffffff1673ffffffffffffffffffffffffffffffffffffffff1673ffffffffffffffffffffffffffffffffffffffff16815260200190815260200160002060008d8152602001908152602001600020546128d090919063ffffffff16565b6002600087878154811061145157fe5b906000526020600020906007020160010160009054906101000a900473ffffffffffffffffffffffffffffffffffffffff1673ffffffffffffffffffffffffffffffffffffffff1673ffffffffffffffffffffffffffffffffffffffff16815260200190815260200160002060008c8152602001908152602001600020819055506115c16115058686815481106114e457fe5b9060005260206000209060070201600501548361292090919063ffffffff16565b6002600088888154811061151557fe5b906000526020600020906007020160010160009054906101000a900473ffffffffffffffffffffffffffffffffffffffff1673ffffffffffffffffffffffffffffffffffffffff1673ffffffffffffffffffffffffffffffffffffffff16815260200190815260200160002060007f44414900000000000000000000000000000000000000000000000000000000008152602001908152602001600020546105a690919063ffffffff16565b600260008787815481106115d157fe5b906000526020600020906007020160010160009054906101000a900473ffffffffffffffffffffffffffffffffffffffff1673ffffffffffffffffffffffffffffffffffffffff1673ffffffffffffffffffffffffffffffffffffffff16815260200190815260200160002060007f44414900000000000000000000000000000000000000000000000000000000008152602001908152602001600020819055505b61168960016006546105a690919063ffffffff16565b6006819055506116a36001856105a690919063ffffffff16565b93505050610a2d565b600091505b8280549050821080156116fd57508282815481106116cb57fe5b9060005260206000209060070201600301548383815481106116e957fe5b906000526020600020906007020160040154145b156118e15760008290505b60018480549050038110156118375783600182018154811061172657fe5b906000526020600020906007020184828154811061174057fe5b9060005260206000209060070201600082015481600001556001820160009054906101000a900473ffffffffffffffffffffffffffffffffffffffff168160010160006101000a81548173ffffffffffffffffffffffffffffffffffffffff021916908373ffffffffffffffffffffffffffffffffffffffff1602179055506001820160149054906101000a900460ff168160010160146101000a81548160ff021916908360018111156117f057fe5b021790555060028201548160020155600382015481600301556004820154816004015560058201548160050155600682015481600601559050508080600101915050611708565b508280548061184257fe5b60019003818190600052602060002090600702016000808201600090556001820160006101000a81549073ffffffffffffffffffffffffffffffffffffffff02191690556001820160146101000a81549060ff021916905560028201600090556003820160009055600482016000905560058201600090556006820160009055505090556118da6001836105a690919063ffffffff16565b91506116b1565b5050505050505050565b60065481565b60006020528060005260406000206000915090508060000154908060010160009054906101000a900473ffffffffffffffffffffffffffffffffffffffff16905082565b600460009054906101000a900473ffffffffffffffffffffffffffffffffffffffff1673ffffffffffffffffffffffffffffffffffffffff163373ffffffffffffffffffffffffffffffffffffffff16146119c5576040517f08c379a00000000000000000000000000000000000000000000000000000000081526004016119bc90613366565b60405180910390fd5b60405180604001604052808381526020018273ffffffffffffffffffffffffffffffffffffffff168152506000808481526020019081526020016000206000820151816000015560208201518160010160006101000a81548173ffffffffffffffffffffffffffffffffffffffff021916908373ffffffffffffffffffffffffffffffffffffffff16021790555090505060018290806001815401808255809150506001900390600052602060002001600090919091909150555050565b60018181548110611a9057fe5b906000526020600020016000915090505481565b80600073ffffffffffffffffffffffffffffffffffffffff1660008083815260200190815260200160002060010160009054906101000a900473ffffffffffffffffffffffffffffffffffffffff1673ffffffffffffffffffffffffffffffffffffffff161415611b4a576040517f08c379a0000000000000000000000000000000000000000000000000000000008152600401611b4190613446565b60405180910390fd5b82600260003373ffffffffffffffffffffffffffffffffffffffff1673ffffffffffffffffffffffffffffffffffffffff1681526020019081526020016000206000848152602001908152602001600020541015611bdd576040517f08c379a0000000000000000000000000000000000000000000000000000000008152600401611bd490613346565b60405180910390fd5b611c4083600260003373ffffffffffffffffffffffffffffffffffffffff1673ffffffffffffffffffffffffffffffffffffffff1681526020019081526020016000206000858152602001908152602001600020546128d090919063ffffffff16565b600260003373ffffffffffffffffffffffffffffffffffffffff1673ffffffffffffffffffffffffffffffffffffffff16815260200190815260200160002060008481526020019081526020016000208190555060008083815260200190815260200160002060010160009054906101000a900473ffffffffffffffffffffffffffffffffffffffff1673ffffffffffffffffffffffffffffffffffffffff1663a9059cbb33856040518363ffffffff1660e01b8152600401611d0492919061323e565b602060405180830381600087803b158015611d1e57600080fd5b505af1158015611d32573d6000803e3d6000fd5b505050506040513d601f19601f82011682018060405250611d569190810190612ad1565b50505050565b606080600180549050604051908082528060200260200182016040528015611d9e57816020015b611d8b612990565b815260200190600190039081611d835790505b50905060008090505b600180549050811015611e7b57604051806040016040528060008060018581548110611dcf57fe5b9060005260206000200154815260200190815260200160002060000154815260200160008060018581548110611e0157fe5b9060005260206000200154815260200190815260200160002060010160009054906101000a900473ffffffffffffffffffffffffffffffffffffffff1673ffffffffffffffffffffffffffffffffffffffff16815250828281518110611e6357fe5b60200260200101819052508080600101915050611da7565b508091505090565b80600073ffffffffffffffffffffffffffffffffffffffff1660008083815260200190815260200160002060010160009054906101000a900473ffffffffffffffffffffffffffffffffffffffff1673ffffffffffffffffffffffffffffffffffffffff161415611f29576040517f08c379a0000000000000000000000000000000000000000000000000000000008152600401611f2090613446565b60405180910390fd5b60008083815260200190815260200160002060010160009054906101000a900473ffffffffffffffffffffffffffffffffffffffff1673ffffffffffffffffffffffffffffffffffffffff166323b872dd3330866040518463ffffffff1660e01b8152600401611f9b93929190613207565b602060405180830381600087803b158015611fb557600080fd5b505af1158015611fc9573d6000803e3d6000fd5b505050506040513d601f19601f82011682018060405250611fed9190810190612ad1565b5061205183600260003373ffffffffffffffffffffffffffffffffffffffff1673ffffffffffffffffffffffffffffffffffffffff1681526020019081526020016000206000858152602001908152602001600020546105a690919063ffffffff16565b600260003373ffffffffffffffffffffffffffffffffffffffff1673ffffffffffffffffffffffffffffffffffffffff168152602001908152602001600020600084815260200190815260200160002081905550505050565b83600073ffffffffffffffffffffffffffffffffffffffff1660008083815260200190815260200160002060010160009054906101000a900473ffffffffffffffffffffffffffffffffffffffff1673ffffffffffffffffffffffffffffffffffffffff161415612150576040517f08c379a000000000000000000000000000000000000000000000000000000000815260040161214790613446565b60405180910390fd5b847f44414900000000000000000000000000000000000000000000000000000000008114156121b4576040517f08c379a00000000000000000000000000000000000000000000000000000000081526004016121ab906133a6565b60405180910390fd5b6001808111156121c057fe5b8360018111156121cc57fe5b141561226a5784600260003373ffffffffffffffffffffffffffffffffffffffff1673ffffffffffffffffffffffffffffffffffffffff1681526020019081526020016000206000888152602001908152602001600020541015612265576040517f08c379a000000000000000000000000000000000000000000000000000000000815260040161225c90613406565b60405180910390fd5b612330565b61227d848661292090919063ffffffff16565b600260003373ffffffffffffffffffffffffffffffffffffffff1673ffffffffffffffffffffffffffffffffffffffff16815260200190815260200160002060007f4441490000000000000000000000000000000000000000000000000000000000815260200190815260200160002054101561232f576040517f08c379a000000000000000000000000000000000000000000000000000000000815260040161232690613426565b60405180910390fd5b5b600060036000888152602001908152602001600020600085600181111561235357fe5b815260200190815260200160002090508060405180610100016040528060055481526020013373ffffffffffffffffffffffffffffffffffffffff1681526020018660018111156123a057fe5b8152602001898152602001888152602001600081526020018781526020014281525090806001815401808255809150506001900390600052602060002090600702016000909190919091506000820151816000015560208201518160010160006101000a81548173ffffffffffffffffffffffffffffffffffffffff021916908373ffffffffffffffffffffffffffffffffffffffff16021790555060408201518160010160146101000a81548160ff0219169083600181111561246057fe5b0217905550606082015181600201556080820151816003015560a0820151816004015560c0820151816005015560e0820151816006015550506000808280549050116124ad5760006124b6565b60018280549050035b90505b600081111561288457600060018111156124cf57fe5b8560018111156124db57fe5b14801561252457508181815481106124ef57fe5b90600052602060002090600702016005015482600183038154811061251057fe5b906000526020600020906007020160050154115b1561252e57612884565b60018081111561253a57fe5b85600181111561254657fe5b14801561258f575081818154811061255a57fe5b90600052602060002090600702016005015482600183038154811061257b57fe5b906000526020600020906007020160050154105b1561259957612884565b6125a16129c3565b8260018303815481106125b057fe5b906000526020600020906007020160405180610100016040529081600082015481526020016001820160009054906101000a900473ffffffffffffffffffffffffffffffffffffffff1673ffffffffffffffffffffffffffffffffffffffff1673ffffffffffffffffffffffffffffffffffffffff1681526020016001820160149054906101000a900460ff16600181111561264857fe5b600181111561265357fe5b815260200160028201548152602001600382015481526020016004820154815260200160058201548152602001600682015481525050905082828154811061269757fe5b90600052602060002090600702018360018403815481106126b457fe5b9060005260206000209060070201600082015481600001556001820160009054906101000a900473ffffffffffffffffffffffffffffffffffffffff168160010160006101000a81548173ffffffffffffffffffffffffffffffffffffffff021916908373ffffffffffffffffffffffffffffffffffffffff1602179055506001820160149054906101000a900460ff168160010160146101000a81548160ff0219169083600181111561276457fe5b02179055506002820154816002015560038201548160030155600482015481600401556005820154816005015560068201548160060155905050808383815481106127ab57fe5b90600052602060002090600702016000820151816000015560208201518160010160006101000a81548173ffffffffffffffffffffffffffffffffffffffff021916908373ffffffffffffffffffffffffffffffffffffffff16021790555060408201518160010160146101000a81548160ff0219169083600181111561282e57fe5b0217905550606082015181600201556080820151816003015560a0820151816004015560c0820151816005015560e0820151816006015590505061287c6001836128d090919063ffffffff16565b9150506124b9565b61289a60016005546105a690919063ffffffff16565b6005819055505050505050505050565b600460009054906101000a900473ffffffffffffffffffffffffffffffffffffffff1681565b600082821115612915576040517f08c379a000000000000000000000000000000000000000000000000000000000815260040161290c90613386565b60405180910390fd5b818303905092915050565b600080831415612933576000905061298a565b600082840290508284828161294457fe5b0414612985576040517f08c379a000000000000000000000000000000000000000000000000000000000815260040161297c906133e6565b60405180910390fd5b809150505b92915050565b604051806040016040528060008019168152602001600073ffffffffffffffffffffffffffffffffffffffff1681525090565b60405180610100016040528060008152602001600073ffffffffffffffffffffffffffffffffffffffff16815260200160006001811115612a0057fe5b815260200160008019168152602001600081526020016000815260200160008152602001600081525090565b600081359050612a3b8161368f565b92915050565b600081519050612a50816136a6565b92915050565b600081359050612a65816136bd565b92915050565b600081359050612a7a816136d4565b92915050565b600081359050612a8f816136e4565b92915050565b60008060408385031215612aa857600080fd5b6000612ab685828601612a2c565b9250506020612ac785828601612a56565b9150509250929050565b600060208284031215612ae357600080fd5b6000612af184828501612a41565b91505092915050565b600060208284031215612b0c57600080fd5b6000612b1a84828501612a56565b91505092915050565b60008060408385031215612b3657600080fd5b6000612b4485828601612a56565b9250506020612b5585828601612a2c565b9150509250929050565b60008060408385031215612b7257600080fd5b6000612b8085828601612a56565b9250506020612b9185828601612a6b565b9150509250929050565b600080600060608486031215612bb057600080fd5b6000612bbe86828701612a56565b9350506020612bcf86828701612a80565b9250506040612be086828701612a6b565b9150509250925092565b600080600060608486031215612bff57600080fd5b6000612c0d86828701612a56565b9350506020612c1e86828701612a80565b9250506040612c2f86828701612a80565b9150509250925092565b60008060008060808587031215612c4f57600080fd5b6000612c5d87828801612a56565b9450506020612c6e87828801612a80565b9350506040612c7f87828801612a80565b9250506060612c9087828801612a6b565b91505092959194509250565b600060208284031215612cae57600080fd5b6000612cbc84828501612a80565b91505092915050565b60008060408385031215612cd857600080fd5b6000612ce685828601612a80565b9250506020612cf785828601612a56565b9150509250929050565b6000612d0d83836130fd565b6101008301905092915050565b6000612d26838361319f565b60408301905092915050565b612d3b8161363a565b82525050565b612d4a816135d5565b82525050565b612d59816135d5565b82525050565b6000612d6a82613572565b612d7481856135a2565b9350612d7f83613552565b8060005b83811015612db0578151612d978882612d01565b9750612da283613588565b925050600181019050612d83565b5085935050505092915050565b6000612dc88261357d565b612dd281856135b3565b9350612ddd83613562565b8060005b83811015612e0e578151612df58882612d1a565b9750612e0083613595565b925050600181019050612de1565b5085935050505092915050565b612e24816135f3565b82525050565b612e33816135f3565b82525050565b612e428161364c565b82525050565b612e518161364c565b82525050565b6000612e64601b836135c4565b91507f536166654d6174683a206164646974696f6e206f766572666c6f7700000000006000830152602082019050919050565b6000612ea4600f836135c4565b91507f62616c616e636520746f6f206c6f7700000000000000000000000000000000006000830152602082019050919050565b6000612ee4600a836135c4565b91507f6f6e6c792061646d696e000000000000000000000000000000000000000000006000830152602082019050919050565b6000612f24601e836135c4565b91507f536166654d6174683a207375627472616374696f6e206f766572666c6f7700006000830152602082019050919050565b6000612f646010836135c4565b91507f63616e6e6f7420747261646520444149000000000000000000000000000000006000830152602082019050919050565b6000612fa4601f836135c4565b91507f416d6f756e74206d75737420626520686967686572207468616e207a65726f006000830152602082019050919050565b6000612fe46021836135c4565b91507f536166654d6174683a206d756c7469706c69636174696f6e206f766572666c6f60008301527f77000000000000000000000000000000000000000000000000000000000000006020830152604082019050919050565b600061304a6015836135c4565b91507f746f6b656e2062616c616e636520746f6f206c6f7700000000000000000000006000830152602082019050919050565b600061308a6013836135c4565b91507f6461692062616c616e636520746f6f206c6f77000000000000000000000000006000830152602082019050919050565b60006130ca6019836135c4565b91507f7468697320746f6b656e20646f6573206e6f74206578697374000000000000006000830152602082019050919050565b6101008201600082015161311460008501826131ce565b5060208201516131276020850182612d41565b50604082015161313a6040850182612e39565b50606082015161314d6060850182612e1b565b50608082015161316060808501826131ce565b5060a082015161317360a08501826131ce565b5060c082015161318660c08501826131ce565b5060e082015161319960e08501826131ce565b50505050565b6040820160008201516131b56000850182612e1b565b5060208201516131c86020850182612d41565b50505050565b6131d781613630565b82525050565b6131e681613630565b82525050565b60006020820190506132016000830184612d50565b92915050565b600060608201905061321c6000830186612d32565b6132296020830185612d32565b61323660408301846131dd565b949350505050565b60006040820190506132536000830185612d32565b61326060208301846131dd565b9392505050565b600060608201905061327c6000830186612d32565b61328960208301856131dd565b61329660408301846131dd565b949350505050565b600060208201905081810360008301526132b88184612d5f565b905092915050565b600060208201905081810360008301526132da8184612dbd565b905092915050565b60006020820190506132f76000830184612e2a565b92915050565b60006040820190506133126000830185612e2a565b61331f6020830184612d50565b9392505050565b6000602082019050818103600083015261333f81612e57565b9050919050565b6000602082019050818103600083015261335f81612e97565b9050919050565b6000602082019050818103600083015261337f81612ed7565b9050919050565b6000602082019050818103600083015261339f81612f17565b9050919050565b600060208201905081810360008301526133bf81612f57565b9050919050565b600060208201905081810360008301526133df81612f97565b9050919050565b600060208201905081810360008301526133ff81612fd7565b9050919050565b6000602082019050818103600083015261341f8161303d565b9050919050565b6000602082019050818103600083015261343f8161307d565b9050919050565b6000602082019050818103600083015261345f816130bd565b9050919050565b600060208201905061347b60008301846131dd565b92915050565b600061010082019050613497600083018b6131dd565b6134a4602083018a612d50565b6134b16040830189612e48565b6134be6060830188612e2a565b6134cb60808301876131dd565b6134d860a08301866131dd565b6134e560c08301856131dd565b6134f260e08301846131dd565b9998505050505050505050565b600060a08201905061351460008301886131dd565b61352160208301876131dd565b61352e60408301866131dd565b61353b60608301856131dd565b61354860808301846131dd565b9695505050505050565b6000819050602082019050919050565b6000819050602082019050919050565b600081519050919050565b600081519050919050565b6000602082019050919050565b6000602082019050919050565b600082825260208201905092915050565b600082825260208201905092915050565b600082825260208201905092915050565b60006135e082613610565b9050919050565b60008115159050919050565b6000819050919050565b600081905061360b82613682565b919050565b600073ffffffffffffffffffffffffffffffffffffffff82169050919050565b6000819050919050565b60006136458261365e565b9050919050565b6000613657826135fd565b9050919050565b600061366982613670565b9050919050565b600061367b82613610565b9050919050565b6002811061368c57fe5b50565b613698816135d5565b81146136a357600080fd5b50565b6136af816135e7565b81146136ba57600080fd5b50565b6136c6816135f3565b81146136d157600080fd5b50565b600281106136e157600080fd5b50565b6136ed81613630565b81146136f857600080fd5b5056fea2646970667358221220ff1952334ac17177d882308e48c1a11ca8eb7bddbfacff10e8afb40745ad1e1e64736f6c63430006030033",
  "source": "pragma solidity ^0.6.3;\r\n\r\nimport '@openzeppelin/contracts/token/ERC20/IERC20.sol';\r\nimport '@openzeppelin/contracts/math/SafeMath.sol';\r\npragma experimental ABIEncoderV2;\r\n\r\n\r\ncontract Dex{\r\n\r\n    using SafeMath for uint;\r\n\r\n    enum Side {\r\n        BUY,\r\n        SELL\r\n    }\r\n    struct Token {\r\n        bytes32 ticker;\r\n        address tokenAddress;\r\n    }\r\n\r\n    struct Order {\r\n        uint id;\r\n        address trader;\r\n        Side side;\r\n        bytes32 ticker;\r\n        uint amount;\r\n        uint filled;\r\n        uint price;\r\n        uint date;\r\n    }\r\n\r\n    mapping(bytes32 => Token) public tokens;\r\n    bytes32[] public tokenList;\r\n    mapping(address => mapping(bytes32 => uint)) public traderBalances;\r\n    mapping(bytes32 => mapping(uint => Order[])) public orderBook;\r\n    address public admin;\r\n    uint public nextOrderId;\r\n    uint public nextTradeId;\r\n    bytes32 constant DAI = bytes32('DAI');\r\n\r\n    event NewTrade(\r\n        uint tradeId,\r\n        uint orderId,\r\n        bytes32 indexed ticker,\r\n        address indexed trader1,\r\n        address indexed trader2,\r\n        uint amount,\r\n        uint price,\r\n        uint date\r\n    );\r\n\r\n    event WalletFund(address user, uint amount, uint balance, uint indexed date);\r\n\r\n    constructor() public {\r\n        admin = msg.sender;\r\n    }\r\n\r\n    receive() payable external{\r\n        require(msg.value >= 0, \"Amount must be higher than zero\");\r\n        uint newBalance = (msg.value * 1000000000000000000) / 600000000000000;\r\n        traderBalances[msg.sender][DAI] = traderBalances[msg.sender][DAI].add(newBalance);\r\n        emit WalletFund(msg.sender, msg.value, traderBalances[msg.sender][DAI], now);\r\n    }\r\n\r\n    function getOrders(\r\n        bytes32 ticker, \r\n        Side side) \r\n        external \r\n        view\r\n        returns(Order[] memory) {\r\n        return orderBook[ticker][uint(side)];\r\n    }\r\n\r\n    function getTokens() \r\n      external \r\n      view \r\n      returns(Token[] memory) {\r\n      Token[] memory _tokens = new Token[](tokenList.length);\r\n      for (uint i = 0; i < tokenList.length; i++) {\r\n        _tokens[i] = Token(\r\n          tokens[tokenList[i]].ticker,\r\n          tokens[tokenList[i]].tokenAddress\r\n        );\r\n      }\r\n      return _tokens;\r\n    }\r\n\r\n    function addToken( bytes32 ticker, address tokenAddress) onlyAdmin() external {\r\n        tokens[ticker] = Token(ticker, tokenAddress);\r\n        tokenList.push(ticker);\r\n    }\r\n\r\n    function deposit(uint amount, bytes32 ticker) tokenExist(ticker) external {\r\n        IERC20(tokens[ticker].tokenAddress).transferFrom(msg.sender, address(this), amount);\r\n        traderBalances[msg.sender][ticker] = traderBalances[msg.sender][ticker].add(amount);\r\n    }\r\n\r\n    function withdraw(uint amount, bytes32 ticker) tokenExist(ticker) external {\r\n        require(traderBalances[msg.sender][ticker] >= amount, \"balance too low\");\r\n        traderBalances[msg.sender][ticker] = traderBalances[msg.sender][ticker].sub(amount);\r\n        IERC20(tokens[ticker].tokenAddress).transfer(msg.sender, amount); \r\n    }\r\n\r\n    function createLimitOrder(bytes32 ticker, uint amount, uint price, Side side) tokenExist(ticker) tokenIsNotDai(ticker) external {\r\n        \r\n        if(side == Side.SELL) {\r\n            require(traderBalances[msg.sender][ticker] >= amount,  'token balance too low');\r\n        }else{\r\n            require(traderBalances[msg.sender][DAI] >= amount.mul(price), 'dai balance too low');\r\n        }\r\n\r\n        Order[] storage orders = orderBook[ticker][uint(side)];\r\n        orders.push(Order(nextOrderId, msg.sender ,side, ticker, amount, 0, price, now));\r\n\r\n        uint i = orders.length > 0 ?  orders.length - 1 : 0;\r\n        while(i > 0) {\r\n            if(side == Side.BUY && orders[i - 1].price > orders[i].price){\r\n                break;\r\n            }\r\n\r\n            if(side == Side.SELL && orders[i - 1].price < orders[i].price){\r\n                break;\r\n            }\r\n\r\n            Order memory order = orders[i - 1];\r\n            orders[i - 1] = orders[i];\r\n            orders[i] = order;\r\n            i = i.sub(1);\r\n        }\r\n\r\n        nextOrderId = nextOrderId.add(1);\r\n    }\r\n\r\n    function createMarketOrder(bytes32 ticker, uint amount, Side side) tokenExist(ticker) tokenIsNotDai(ticker) external{\r\n        if(side == Side.SELL){\r\n            require(traderBalances[msg.sender][ticker] >= amount, 'token balance too low');\r\n        }\r\n\r\n        Order[] storage orders = orderBook[ticker][uint(side == Side.BUY ? Side.SELL : Side.BUY)];\r\n        uint i;\r\n        uint remaining = amount;\r\n\r\n        while(i < orders.length && remaining > 0) {\r\n            uint available = orders[i].amount.sub( orders[i].filled);\r\n            uint matched = (remaining > available) ? available : remaining;\r\n            remaining = remaining.sub( matched);\r\n            orders[i].filled = orders[i].filled.add(matched);\r\n            emit NewTrade(\r\n                nextTradeId,\r\n                orders[i].id,\r\n                ticker,\r\n                orders[i].trader,\r\n                msg.sender,\r\n                matched,\r\n                orders[i].price,\r\n                now\r\n            );\r\n            if(side == Side.SELL) {\r\n                traderBalances[msg.sender][ticker] = traderBalances[msg.sender][ticker].sub(matched);\r\n                traderBalances[msg.sender][DAI] = traderBalances[msg.sender][DAI].add(matched.mul(orders[i].price));\r\n                traderBalances[orders[i].trader][ticker] = traderBalances[orders[i].trader][ticker].add(matched);\r\n                traderBalances[orders[i].trader][DAI] = traderBalances[orders[i].trader][DAI].sub(matched.mul(orders[i].price));\r\n            }\r\n\r\n            if(side == Side.BUY) {\r\n                require(traderBalances[msg.sender][DAI] >= matched.mul(orders[i].price), 'dai balance too low');\r\n                traderBalances[msg.sender][ticker] = traderBalances[msg.sender][ticker].add(matched);\r\n                traderBalances[msg.sender][DAI] = traderBalances[msg.sender][DAI].sub(matched.mul(orders[i].price));\r\n                traderBalances[orders[i].trader][ticker] = traderBalances[orders[i].trader][ticker].sub(matched);\r\n                traderBalances[orders[i].trader][DAI] = traderBalances[orders[i].trader][DAI].add(matched.mul(orders[i].price));\r\n            }\r\n            nextTradeId = nextTradeId.add(1);\r\n            i = i.add(1);\r\n        }\r\n\r\n        i = 0;\r\n        while(i < orders.length && orders[i].filled == orders[i].amount){\r\n            for(uint j = i; j < orders.length - 1; j++){\r\n                orders[j] = orders[j + 1];\r\n            }\r\n            orders.pop();\r\n            i = i.add(1);\r\n        }\r\n    }\r\n\r\n    modifier tokenIsNotDai(bytes32 ticker){\r\n        require(ticker != DAI, 'cannot trade DAI');\r\n        _;\r\n    }\r\n\r\n    modifier tokenExist(bytes32 ticker) {\r\n        require(tokens[ticker].tokenAddress != address(0), \"this token does not exist\");\r\n        _;\r\n    }\r\n\r\n    modifier onlyAdmin() {\r\n        require(msg.sender == admin, 'only admin');\r\n        _;\r\n    }\r\n}",
  "sourcePath": "C:\\Users\\user\\Documents\\Blockchain-projects\\dex\\contracts\\Dex.sol",
  "compiler": {
    "name": "solc",
    "version": "0.6.3+commit.8dda9521.Emscripten.clang"
  },
  "schemaVersion": "3.4.8",
  "updatedAt": "2022-08-07T12:26:39.177Z",
  "networkType": "ethereum",
  "devdoc": {
    "methods": {}
  },
  "userdoc": {
    "methods": {}
  }
}